S012000043616C63756C61746F722E7372656308
S11300000C946A000C947F000C947F000C947F0085
S11300100C947F000C947F000C947F000C947F0060
S11300200C947F000C947F000C947F000C947F0050
S11300300C947F000C947F000C947F000C947F0040
S11300400C947F000C947F000C947F000C947F0030
S11300500C947F00210423042504270429042B0481
S11300602D042F04310433043504370439043B04CC
S11300703D043F04410443044504470449044B043C
S11300804D044F04510453045504570459045B04AC
S11300905D045F046B046D046F04710473047504E0
S11300A0770479047B047D047F048104830485043C
S11300B0870489048B048D048F04910493049504AC
S11300C0970499049B049D049F04A104A304A5041C
S11300D0A704A90411241FBECFE5D8E0DEBFCDBF1D
S11300E010E0A0E6B0E0E4EAFAE002C005900D9268
S11300F0A03BB107D9F70E94D8010C9450050C9489
S11301000000DF92EF92FF920F931F93CF93DF9340
S113011061E088E00E94110461E089E00E9411041A
S113012061E08AE00E94110461E08BE00E94110406
S113013090E6E92E90E0F92EC8E0DEE460E08C2F32
S11301400E94110400E010E080E1D82ED00E8D2D25
S11301500E94BB04811109C0F701E00FF11FD08197
S11301608D2D0E94BB048823D9F30F5F1F4F0430E9
S1130170110551F761E08C2F0E941104CF5F84E0D8
S1130180E80EF11CCC30D1F68D2FDF91CF911F9169
S11301900F91FF90EF90DF900895CF93C82F60E008
S11301A08FE00E9411046C2F80E00E94AB0461E098
S11301B08EE00E9411048FEC97E00197F1F700C0E4
S11301C0000060E08EE00E9411048FEC97E001973C
S11301D0F1F700C00000CF910895CF93C82F61E0DC
S11301E08FE00E9411046C2F80E00E94AB0461E058
S11301F08EE00E9411048FEC97E00197F1F700C0A4
S1130200000060E08EE00E9411048FEC97E00197FB
S1130210F1F700C00000CF9108952FE788E391E043
S1130220215080409040E1F700C0000088E30E9424
S1130230CD008FE00E94CD0081E00E94CD008FECC4
S113024097E00197F1F700C0000086E00C94CD0020
S11302500C94ED000F931F93CF938C01C0E0F80131
S1130260EC0FF11D8081882321F00E94ED00CF5F07
S1130270F6CFCF911F910F910895AC0190E0FA0150
S1130280E90FF11D8081882311F09F5FF8CF2FEFD4
S1130290290FFA019695822F891B281749F090811E
S11302A0DA01A20FB11D3C9131939C932150F5CFFB
S11302B008954F925F926F927F928F929F92BF9216
S11302C0CF92DF92EF92FF920F931F93CF93DF931E
S11302D0CDB7DEB764970FB6F894DEBF0FBECDBFBF
S11302E06B017C018E010F5F1F4F84E1F8011192B5
S11302F08A95E9F7C114D104E104F10421F480E3FF
S11303000E94ED0031C0F7FE0BC0F094E094D0944D
S1130310C094C11CD11CE11CF11C8DE20E94ED00B3
S1130320B12C8AE0482E512C612C712C48018B0C85
S1130330911CC701B601A30192010E941105605DE1
S1130340F401608369017A01B394C114D104E10416
S1130350F10461F7F801EB0DF11D1082C8010E9450
S11303603D01C8010E942A0164960FB6F894DEBFCD
S11303700FBECDBFDF91CF911F910F91FF90EF90F2
S1130380DF90CF90BF909F908F907F906F905F9001
S11303904F900895811102C080E803C0813021F498
S11303A080EC860F0C94CD00089581E00C94CD0070
S11303B00E94FE030E940D0180E790E00E942A0142
S11303C02FEF89E698E1215080409040E1F700C08A
S11303D000000E94D50100E0312C212CD0E00E94C5
S11303E08100C82F8E34D9F3013039F50E94D5012C
S11303F060E080E00E94CA01C301B2010E94590179
S1130400A301920100E0211531054105510551F088
S1130410CA01B9012AE030E040E050E00E94EF0454
S11304200F5FF1CF602F80E00E94CA018C2F0E94E1
S1130430280100E03324339402C00E94280180ED97
S11304408C0F8A30E8F4AAE0B0E0A70196010E947C
S11304503605D0E0E0976E01DD0FEE08FF08C60E0A
S1130460D71EE81EF91E21E02212BCC0F094E094CD
S1130470D094C094C11CD11CE11CF11C212CB2C02D
S1130480CD3221F4DD2309F4A3C008C0CF3209F42E
S113049087C086ED8C0F823080F482C081E03812F0
S11304A006C053014201312CD0E01C2F98CF4601E5
S11304B05701C12CD12C7601F7CFCD3309F07BC085
S11304C01B3291F060F41A3209F085C0A70196013D
S11304D0C501B4010E94DF042B013C015AC01D3246
S11304E051F01F3279F077C026013701480C591CAE
S11304F06A1C7B1C4EC0240135014C185D086E0833
S11305007F0847C0C114D104E104F10471F1C501AD
S1130510B401A70196010E94110529013A01AAE03C
S1130520B0E0A50194010E943605A70196010E943E
S1130530110569017A0160E081E00E94CA01C701E6
S1130540B6012AE030E040E050E00E94EF046B0185
S11305507C01CA01B9010E9459018EE20E9428015E
S1130560C701B6010E94590136C00E94D5016AE054
S113057080E00E94CA018AE890E00E942A019FEF6D
S113058029E688E1915020408040E1F700C0000056
S113059014C060E081E00E94CA01C301B201E2CF4D
S11305A091E0391609F47DCF460157011C2FC12C67
S11305B0D12C7601D0E0C336B1F40E94D501C12F0D
S11305C0812C912C5401C12CD12C760100E06BCFED
S11305D02224239408C0812C912C5401C12CD12CA9
S11305E0760101E0D1E0C12F60CF613009F457C03A
S11305F020F0623009F4ABC00895883080F44AB327
S113060021E030E0B90102C0660F771F8A95E2F756
S1130610CB01942F982B9ABB9BB3809551C098EF34
S1130620980F983088F447B3877021E030E0B9011F
S113063002C0660F771F8A95E2F7CB01942F982B9F
S113064097BB98B3809553C090EF980F983088F477
S113065044B3877021E030E0B90102C0660F771F10
S11306608A95E2F7CB01942F982B94BB95B3809590
S113067055C098EE980F983008F0BFC041B387700A
S113068021E030E0B90102C0660F771F8A95E2F7D6
S1130690CB01942F982B91BB92B3809556C0883090
S11306A090F44AB321E030E0B90102C0660F771F2D
S11306B08A95E2F7CB018095942F98239ABB9BB33C
S11306C089238BBB089598EF980F983098F447B31B
S11306D0877021E030E0B90102C0660F771F8A9568
S11306E0E2F7CB018095942F982397BB98B3892385
S11306F088BB089590EF980F983090F444B38770B6
S113070021E030E0B90102C0660F771F8A95E2F755
S1130710CB018095942F982394BB95B3892355C01E
S113072098EE980F983008F068C041B3877021E0C4
S113073030E0B90102C0660F771F8A95E2F7CB015A
S11307408095942F982391BB92B3892355C0883008
S113075088F44AB321E030E0B90102C0660F771F84
S11307608A95E2F7CB01962F909594239ABB9BB37D
S1130770892BA7CF98EF980F983090F447B38770E0
S113078021E030E0B90102C0660F771F8A95E2F7D5
S1130790CB01962F9095942397BB98B3892BA8CF20
S11307A090EF980F983098F444B3877021E030E0CC
S11307B0B90102C0660F771F8A95E2F7CB01962F25
S11307C09095942394BB95B3892B85BB089598EE9B
S11307D0980F983090F441B3877021E030E0B9016C
S11307E002C0660F771F8A95E2F7CB01962F90958A
S11307F0942391BB92B3892B82BB08950F931F93CB
S1130800CF9300E910E0C0E0F80161918F018C2FD3
S11308100E94F502CF5FC032B9F7CF911F910F91BB
S11308200895662309F44DC0613009F093C090E047
S11308308032910508F08EC0FC01E65DFF4F0C94F8
S11308403005D89A0895D99A0895DA9A0895DB9ACA
S11308500895DC9A0895DD9A0895DE9A0895DF9A42
S11308600895C09A0895C19A0895C29A0895C39AA2
S11308700895C49A0895C59A0895C69A0895C79A82
S11308800895A89A0895A99A0895AA9A0895AB9AE2
S11308900895AC9A0895AD9A0895AE9A0895A79ACA
S11308A00895909A0895919A0895929A0895939A22
S11308B00895949A0895959A0895969A0895979A02
S11308C0089590E08032910508F044C0FC01E65B95
S11308D0FF4F0C943005D8980895D9980895DA9864
S11308E00895DB980895DC980895DD980895DE98BE
S11308F00895DF980895C0980895C1980895C298FE
S11309000895C3980895C4980895C5980895C698FD
S11309100895C7980895A8980895A9980895AA983D
S11309200895AB980895AC980895AD980895AE983D
S11309300895AF980895909808959198089592987D
S1130940089593980895949808959598089596987D
S1130950089597980895813041F028F0823039F055
S1130960833039F008956BBB089568BB089565BB67
S1130970089562BB0895482F883020F499B3892FD5
S113098090E014C088EF840F883010F426B30BC0B5
S113099080EF840F883010F423B305C088EE840FF1
S11309A0883058F420B330E04770C90102C09595EF
S11309B087954A95E2F78170089580E00895DB01F8
S11309C08F939F930E943605BF91AF91A29F800D94
S11309D0911DA39F900DB29F900D11240895A1E243
S11309E01A2EAA1BBB1BFD010DC0AA1FBB1FEE1FA5
S11309F0FF1FA217B307E407F50720F0A21BB30BF0
S1130A00E40BF50B661F771F881F991F1A9469F76B
S1130A1060957095809590959B01AC01BD01CF01C7
S1130A200895052E97FB1EF400940E94280557FD97
S1130A3007D00E94EF0407FC03D04EF40C94280561
S1130A4050954095309521953F4F4F4F5F4F0895F6
S1130A5090958095709561957F4F8F4F9F4F089526
S1130A60EE0FFF1F0590F491E02D09940E944105BB
S1130A70A59F900DB49F900DA49F800D911D1124EE
S1130A800895A29FB001B39FC001A39F700D811D63
S1130A901124911DB29F700D811D1124911D089583
S1070AA0F894FFCFF4
S1130AA43738392F3435362A3132332D63303D2BE0
S1130AB457656C636F6D6520546F204D79204361D5
S1130AC46C63756C61746F7220004552524F52000E
S1130AD4000000000000000000000000000000000E
S1130AE402020202020202020202020202020202DE
S9030000FC
